:4000000080673030303030307e3030307e3030307e3030307e3030307e3030307e3030307e3030307e3030307d03017e7e3030307e3030307e3030307d03b47e7d042b7e44
:4000400030303030303030303030303030303030303030303030303030303030303030307e3030307e303030711062e38270ef62e33841ffef41fefb505e4e62e33855fa0f
:40008000014f5b010353f955f83a500600711051f960e851f860ea70ef55f80055f900711062e01a70ef62e338627105627505627905627d057c02a050005515173c155ef9
:4000c000a0053f158ff8500157d45515003c1507a00b08283f15187509008ff2711070ef62e000711062e01a70ef62e2007c061e8fff50087f303030303030303030303045
:4001000030303030303030303030303030303030303030303030303030303030303030303030303030303030303030303030303030303030303030303030303030303030bf
:40014000303030303030303030303030303030304750535377697463680a0d004750474741003f003d003e003b0039003a002b0029002a006069660063056500e600e700f7
:40018000d600b000b100b200b333b433b500b601b855b900ba10bb33bc33bd00be00ff3c053dc13e40380539d13a40280d29012a466100690060006200673368336300665f
:4001c00000d100d300d000d200e113e200df9bde01dd00ff0000000000000070ef620000711062000c62013070ef620300620234711062020062030070ef6201006204009d
:40020000711062040062050370ef620703620600711062060062070070ef620500620800711062080062090070ef620b00620a007110620a00620b0070ef620900620c0098
:400240007110620c00620d0070ef620f00620e007110620e00620f0070ef620d00621000711062100062110070ef621300621200711062120062130070ef621100621400de
:40028000711062140062150070ef621700621600711062160062170070ef62150070ef7f5516007c02aa7c01db7f1070ef500067500157627c02c55001675001579f7c0200
:4002c000c570ef207f380210084f56fc00d00456fc01182070ef62e30010082839ffa01f4f48fc01a003711054fd18207509001008284f59fd610018207509008fd738fcb9
:400300007f08511508511408511308511208511108511008510f08510e08510d08510c08510b08510a085109085108085107087c061a18530718530818530918530a185358
:400340000b18530c18530d18530e18530f185310185311185312185313185314185315187e43e1047f2901602b7f60297f30313233343536373839414243444546086767ae
:400380006767210fffe7900818210fffe090017f492b10affc60297f5200a0069ff2758ff87f081028a00b9fe7201875dff5748ff238fe7f08511508511408511308511201
:4003c00008511108511008510f08510e08510d08510c08510b08510a085109085108085107087c05e018530718530818530918530a18530b18530c18530d18530e18530f17
:40040000185310185311185312185313185314185315187e43e1407f2901603b7f5d3a7f5d3b7f493b08affc5d3a7f08511508511408511308511208511108511008510fa7
:4004400008510e08510d08510c08510b08510a085109085108085107087c058c18530718530818530918530a18530b18530c18530d18530e18530f185310185311185312b1
:40048000185313185314185315187e43e1807f2901603f7f5d3e7f5d3f7f493f08affc5d3e7f5001800350002900a0062616f780042e1608511660007f104f380252fb0111
:4004c0000153143e1454015600003d0000b0063d0100a0173d0000b0063d0101a0223d0000b0063d0102a068809b3dfc24b09a52fb0101531450013f1452fb926f808a927a
:40050000515314551500110550001900d02606145c0e150151151058142820531552fc3a15b01152fb0102531452fa0900531592448056921d3905b01152fb922f52fb0170
:4005400001531450023f14804052fb91fc803a92013905d0163dfc2cb01152fb0102531452fa09005315920d801f91e63905b01952fb91d552fc1130531552fb531251154b
:400580003f12800552fb91c138fe207f107c0497205318471808a0484718e0b043107c04942053175000085001085117089f0a38fd51013a04c011511708500008501b0875
:4005c0007c070238fd80193c0100b0143c0400b00f511708500008501b087c070238fd7f107c042020531a471a08a02e471ae0b029107c041d20531950000850040851194f
:40060000089eb638fd51013a04d00f511908500008501b087c070238fd7f5500017f104f3801500008501b087c069c38fe7101107c036150007c03657c048b50007c048fb8
:400640007c041450007c041850010850505c187c03a27c04a620803e62e3003c0000a01e51150810500008501b087c06b038fc3900a00b5500001052007c036a2050003a50
:4006800001c00750003a04d008107c04a2208006107c04a6208fc238ff208fff104f52fc531450003f1452fc90c252fc909b207f104f52fc53143e14531550003a15c00507
:4006c0005000803d52fc0103531452fc010290ae3e14531552fa531251153f1252fc010290791101531552fc531251153f1252fc010253143e143940c00552fc906e500160
:40070000207f104f52fc53143e14531550403a15d003803352fc0103531452fc0101905e52fa3f1452fc010190310101531552fc531251153f1252fc010153143e143940ea
:40074000c00552fc9003207f300101531450003f147f52fb010253143e147f53143e147a1401013f1452fc53143e147f0102531450003f147f3e147a1401013f147f53122a
:400780003e12021453147f3030303030303030303030303030303030303030303030303030303030303030303030303030303030303030303030303030303030303030303d
:4007c00030303030303030303030303030303030303030303030303030303030303030303030303030303030303030303030303030303030303030303030303030303030f9
:4008000030303030303030303030303030303030303030303030303030303030303030303030303030303030303030303030303030303030303030303030303030303030b8
:400840003030303030303030303030303030303030303030303030303030303030303030303030303030303030303030303030303030303030303030303030303030303078
:400880003030303030303030303030303030303030303030303030303030303030303030303030303030303030303030303030303030303030303030303030303030303038
:020000040010ea
:020000040020da
:020000009ee57b
:00000001ff
